:020000040800F2
:10000000005000204D100008850C00088D0C0008E1
:10001000950C00089D0C0008A50C000800000000CD
:100020000000000000000000000000006120000847
:10003000AD0C0008000000004122000889220008E1
:1000400095100008951000089510000895100008FC
:1000500095100008951000089510000895100008EC
:1000600095100008951000089510000895100008DC
:1000700095100008951000089510000895100008CC
:1000800095100008951000089510000895100008BC
:1000900095100008951000089510000895100008AC
:1000A00095100008B90C000895100008951000087C
:1000B000951000089510000895100008951000088C
:1000C000951000089510000895100008951000087C
:1000D000951000089510000895100008951000086C
:1000E0009510000895100008951000080000000009
:1000F0000000000000000000000000000000000000
:0C01000000000000000000005FF808F1A3
:1001100010B5054C237833B9044B13B10448AFF341
:1001200000800123237010BD580000200000000053
:100130004830000808B5034B1BB103490348AFF32F
:10014000008008BD000000005C000020483000086E
:1001500010F8012B11F8013B012A28BF9A42F7D071
:10016000D01A704780B485B000AF786009E00023F2
:10017000FB6003E000BFFB680133FB60FB68072BFB
:10018000F8D97B685A1E7A60002BF0D100BF00BFFF
:100190001437BD4680BC704780B582B000AF786030
:1001A00003E04FF47A70FFF7DDFF7B685A1E7A6038
:1001B000002BF6D100BF00BF0837BD4680BD000050
:1001C00080B400AF0A4B1B68094A23F00F03136089
:1001D000074B1B68064A43F002031360044B1B687D
:1001E000034A43F00403136000BFBD4680BC704760
:1001F0000008014080B400AF0A4B1B68094A23F095
:100200000F031360074B1B68064A43F00803136093
:10021000044BDB68034A43F00103D36000BFBD46D3
:1002200080BC704700080140B0B59CB004AF786056
:1002300039600023BB64002387F84C30FFF7C0FF10
:10024000A24BDB68A14A23F00103D36044F620608F
:10025000FFF788FF9D4BDB689C4A43F00103D360A6
:100260001E20FFF77FFFFFF7C5FF4FF47A73FB6592
:1002700002E00120FFF776FF944B9B6803F0010337
:10028000002B04D0FB6D5A1EFA65002BF1D1FB6DDB
:10029000002B04D18E4800F04FFC002312E14FF4F4
:1002A0007A73FB6502E00120FFF75CFF874B9B68D8
:1002B00003F00103002B04D1FB6D5A1EFA65002BDD
:1002C000F1D1FB6D002B04D1824800F035FC0023F6
:1002D000F8E04FF47A73FB6502E00120FFF742FF7C
:1002E0007A4B9B6803F00103002B04D0FB6D5A1E70
:1002F000FA65002BF1D1FB6D002B04D1764800F09C
:100300001BFC0023DEE00023BB655EE000237B6571
:1003100055E04FF47A73FB6502E00120FFF722FFFE
:100320006A4B9B6803F00103002B04D1FB6D5A1E3E
:10033000FA65002BF1D1FB6D002B04D1674800F06A
:10034000FBFB0023BEE02820FFF70CFF5F4B9B6800
:1003500003F00103002B15D007F14802BB6D1344D5
:100360001B785AB27B6DC3F10703012101FA03F335
:100370005BB213435BB2D9B207F14802BB6D1344C1
:100380000A461A704FF47A73FB6502E00120FFF70A
:10039000E9FE4E4B9B6803F00103002B04D0FB6D7C
:1003A0005A1EFA65002BF1D1FB6D002B04D14C488D
:1003B00000F0C2FB002385E07B6D01337B657B6D24
:1003C000072BA6DDBB6D0133BB65BB6D042B9DDD2B
:1003D00097F8482097F849301344DAB297F84A3032
:1003E0001344DAB297F84B30134487F8533097F838
:1003F00048301C4697F849301D4697F84A3097F820
:100400004B2097F84C1007F10800029101920093DD
:100410002B462246334902F067F907F108031846D4
:1004200000F08AFB97F84C3097F853209A4204D09A
:100430002D4800F081FB002344E097F848301B0270
:100440001AB297F849301BB213431BB2A7F85030C9
:1004500097F84A301B021AB297F84B301BB213437D
:100460001BB2A7F84E30B7F85030204AA2FB032346
:10047000DB089BB2DAB23B681A70B7F94E30002B3A
:1004800012DAB7F84E30C3F30E03A7F84E30B7F8C0
:100490004E30164AA2FB0323DB089BB2DBB25B4261
:1004A000DAB27B681A7009E0B7F84E300F4AA2FB47
:1004B0000323DB089BB2DAB27B681A700C4800F0A9
:1004C0003BFB012318466037BD46B0BD0008014024
:1004D0006030000888300008B0300008DC300008C8
:1004E000FC3000081831000830310008CDCCCCCCED
:1004F0004431000880B500AF044B9B69034A43F0C8
:1005000004039361FFF776FE00BF80BD0010024038
:1005100080B400AF034B20221A6100BFBD4680BCEF
:10052000704700BF0008014080B400AF034B4FF498
:1005300000121A6100BFBD4680BC70470008014030
:1005400080B400AF034B40221A6100BFBD4680BC9F
:10055000704700BF0008014080B400AF034B4FF468
:1005600080021A6100BFBD4680BC70470008014090
:1005700080B400AF124B9B69114A43F004039361AE
:10058000104B1B680F4A23F0F00313600D4B1B68E0
:100590000C4A43F0200313600A4B0A4A1B6813609D
:1005A000084B1B68074A23F470631360054B1B68F4
:1005B000044A43F48063136000BFBD4680BC7047AB
:1005C000001002400008014080B582B000AF002357
:1005D0007B6000233B60264BDB68254A23F0020347
:1005E000D3600220FFF7BEFD214BDB68204A43F0B9
:1005F0000203D3600A20FFF7B5FD1D4BDB681C4AE0
:1006000023F00203D36000233B600CE00120FFF7DE
:10061000A9FD3B6801333B603B6840F6B83293422A
:1006200001D9002320E0124B9B6803F00403002B48
:10063000ECD000237B600AE00120FFF793FD7B688C
:1006400001337B607B6840F6B832934206D8084B92
:100650009B6803F00403002BEED100E000BF7B6831
:10066000044AA2FB03235B0918460837BD4680BD38
:100670000008014009CB3D8D80B582B000AF034634
:100680000A46FB711346BB7100BF214B9B6903F007
:100690000203002BF9D11E4B1B681D4A43F48073E3
:1006A000136000BF1A4B5B6903F00103002BF9D004
:1006B000174B5B69164B78221A6100BF144B5B69BC
:1006C00003F00203002BF9D0114B9B69104AFB7910
:1006D000136100BF0E4B5B6903F08003002BF9D060
:1006E0000B4ABB79136100BF094B5B6903F08003C0
:1006F000002BF9D0064B1B68054A43F400731360C6
:100700000A20FFF72FFD00BF0837BD4680BD00BFA0
:100710000054004080B582B000AF0346FB71FB7906
:1007200019460020FFF7A8FF00BF0837BD4680BD6F
:1007300080B582B000AF0346FB71FB7919464020BB
:10074000FFF79AFF00BF0837BD4680BD80B400AFF9
:10075000134BDB69124A43F40013D361114B1B683E
:10076000104A23F07F4313600E4B1B680D4A43F081
:10077000206313600B4B1B680A4A43F0204313604D
:10078000094B24225A60084BB422DA61064B252219
:100790001A62054B01221A6000BFBD4680BC70473B
:1007A00000100240000C01400054004080B500AF32
:1007B000FFF7CCFF6420FFF7EFFCAE20FFF7AAFFA6
:1007C000D520FFF7A7FF8020FFF7A4FFA820FFF7A1
:1007D000A1FF1F20FFF79EFFD320FFF79BFF002004
:1007E000FFF798FF4020FFF795FF8D20FFF792FF5E
:1007F0001420FFF78FFF2020FFF78CFF0020FFF76A
:1008000089FFA120FFF786FFC820FFF783FFDA20CA
:10081000FFF780FF0220FFF77DFF8120FFF77AFFBF
:100820008F20FFF777FFD920FFF774FFF120FFF744
:1008300071FFDB20FFF76EFF4020FFF76BFFA42066
:10084000FFF768FFA620FFF765FFAF20FFF762FF05
:1008500000F004F800F00EF800BF80BD80B500AFD6
:100860004FF400720021024801F05EFF00BF80BD1E
:100870007400002080B582B000AF0023FB7121E03E
:10088000FB79503BDBB21846FFF744FF0020FFF72F
:1008900041FF1020FFF73EFF0023BB710BE0FB7907
:1008A000DA01BB7913440B4AD35C1846FFF740FFCB
:1008B000BB790133BB7197F90630002BEFDAFB7976
:1008C0000133FB71FB79032BDAD900BF00BF083776
:1008D000BD4680BD7400002080B584B000AF0346E3
:1008E0003A60FB710B46BB71FB799BB2DB019AB29C
:1008F000BB799BB2194649000B445B009BB2134481
:10090000FB8120E00023BB6014E03B681B78A3F16F
:100910002002F989BB681944124813465B0013444E
:100920005B00C218BB6813441A780F4B5A54BB685B
:100930000133BB60BB68052BE7DDFB890633FB8118
:100940003B6801333B603B681B78002B03D0FB897D
:10095000B3F5FD7FD6D3FFF78DFF00BF1037BD463F
:1009600080BD00BFB43300087400002080B400AF25
:100970003C4B1B683B4A43F48033136000BF394B48
:100980001B6803F40033002BF9D0374B1B68364A41
:1009900043F010031360344B1B68334A23F0070302
:1009A0001360314B1B68304A43F0040313602D4B36
:1009B0005B682C4A23F4803353602A4B5B68294AD6
:1009C00043F480335360274B5B68264A23F470134B
:1009D0005360244B5B68234A43F4E0135360214B7C
:1009E0001B68204A43F08073136000BF1D4B1B68D7
:1009F00003F00073002BF9D01A4B5B68194A23F0FF
:100A000003035360174B5B68164A43F002035360BD
:100A100000BF144B5B6803F00C03082BF9D1114B9A
:100A20005B68104A23F0F00353600E4B5B680D4A7D
:100A300023F4E06353600B4B5B680A4A43F4806322
:100A40005360084B5B68074A23F460535360054BBF
:100A50009B69044A43F01D03936100BFBD4680BCFF
:100A6000704700BF001002400020024080B400AF79
:100A70001A4B9B69194A43F4804343F00503936181
:100A8000174B5B68164A23F0F0035360144B5B6806
:100A9000134A43F030035360114B5B68104A43F034
:100AA000800353600E4B5B680D4A23F47063536000
:100AB0000B4B5B680A4A43F480635360094B41F671
:100AC0004C529A60074BDB68064A43F4005343F0EC
:100AD0000C03D36000BFBD4680BC704700100240CD
:100AE000000801400038014080B483B000AF0346E5
:100AF000FB7100BF064B1B6803F08003002BF9D08D
:100B0000034AFB79536000BF0C37BD4680BC704779
:100B10000038014080B400AF00BF064B1B6803F0F3
:100B20002003002BF9D0034B5B68DBB21846BD46AF
:100B300080BC70470038014080B582B000AF78605B
:100B400006E07B685A1C7A601B781846FFF7CCFFDA
:100B50007B681B78002BF4D100BF00BF0837BD466F
:100B600080BD000080B400AF044B1B68DBB203F013
:100B70002003DBB21846BD4680BC704700380140F8
:100B800080B485B000AFF860B9607A60FB68064A4F
:100B90001A60BB68054A1A607B6880221A6000BF31
:100BA0001437BD4680BC704774020020C802002084
:100BB000B0B59CB000AFFFF759FFFFF7D7FE28484C
:100BC000FFF7BAFF274B07F154041D460FCD0FC4A2
:100BD00095E8070084E8070007F154030021184650
:100BE00000F0A6FB0346204A1360204B07F13804AF
:100BF0001D460FCD0FC495E8070084E8070007F1F4
:100C000038030021184600F093FB0346184A13608E
:100C1000184B07F11C041D460FCD0FC495E80700C3
:100C200084E8070007F11C030021184600F080FB50
:100C30000346114A1360114B3C461D460FCD0FC4AD
:100C400095E8070084E807003B460021184600F0BD
:100C50006FFB03460A4A136000F063FB00BFFDE729
:100C60006831000878310008C8040020A03100086D
:100C700018050020C831000820050020F4310008C4
:100C80001C05002080B400AF00BFFDE780B400AFBA
:100C900000BFFDE780B400AF00BFFDE780B400AF48
:100CA00000BFFDE780B400AF00BFFDE780B400AF38
:100CB00000BFBD4680BC704780B500AF024800F061
:100CC000EAF900BF80BD00BFCC04002080B586B02B
:100CD00000AF7860144A154BD31A7B617B693B6186
:100CE000134B1B68002B02D1114B124A1A60104B98
:100CF0001A687B6813443A699A4207D201F01CFDD6
:100D000003460C221A604FF0FF3309E0084B1B68C2
:100D1000FB60074B1A687B681344054A1360FB6845
:100D200018461837BD4680BD005000200004000062
:100D300014050020E813002080B400AF00BFBD46BA
:100D400080BC704780B594B000AF7860002387F80E
:100D50004F30002387F84E30FFF7CCFB07F14E02EF
:100D600007F14F0311461846FFF75EFA0346002BC2
:100D70000AD097F84F301A4697F84E3007F10C001A
:100D8000094901F0B1FC05E007F10C0307491846D9
:100D900001F0AAFC07F10C031846FFF7CDFE41F263
:100DA000883000F011FBD9E7103200082C3200081F
:100DB00080B58CB000AF78600023FB62FFF7F6FCD3
:100DC000FFF702FCF862FFF749FDFB6A002B0AD12E
:100DD000114A00210020FFF77FFD104A0021012069
:100DE000FFF77AFD12E00C4A00210020FFF774FDA6
:100DF00007F10C03FA6A0A49184601F075FC07F17D
:100E00000C031A4600210120FFF766FD4FF4FA603B
:100E100000F0DAFAD4E700BF403200084C32000894
:100E20006032000880B594B000AF78600023FB64A6
:100E3000FFF79EFBFFF7C8FBF864FB6C002B03D1A8
:100E40000A48FFF779FE0BE007F10C03FA6C08493A
:100E5000184601F049FC07F10C031846FFF76CFE39
:100E60004FF4FA6000F0B0FAE4E700BF683200081F
:100E70008032000880B594B000AF7860FFF7F6FDCF
:100E80005F48FFF759FEFFF745FE034687F84F30EE
:100E900097F84F301846FFF727FE97F84F300D2B85
:100EA00040F09B80574B1B781A46574B00219954B2
:100EB00056495548FFF74CF90346002B3DD154489D
:100EC000FFF73AFE53495448FFF7AEF90346002BAB
:100ED00021D0514B1B781A464E4B1B7807F1080066
:100EE0004E4901F001FC07F108031846FFF724FE04
:100EF000494B1B781E2B02D9FFF722FB01E0FFF7BD
:100F00002BFBFFF7ABFC07F108031A46002100207A
:100F1000FFF7E2FC02E04248FFF70EFE4FF47A7062
:100F200000F052FAFFF71EFE0346002BCAD03D48E0
:100F3000FFF702FEFFF710FB4BE03B493248FFF79B
:100F400007F90346002B05D1FFF7E2FA3748FFF710
:100F5000F3FD3EE036492C48FFF7FAF80346002B34
:100F600005D1FFF7E1FA3348FFF7E6FD31E03249FA
:100F70002548FFF7EDF80346002B27D12F48FFF750
:100F8000DBFDFFF721FBB86407F10803BA6C2C49BD
:100F9000184601F0A9FB07F108031846FFF7CCFD3E
:100FA000FFF75CFC07F108031A4600210020FFF759
:100FB00093FC4FF4FA7000F007FAFFF7D3FD0346F5
:100FC000002BDED01F48FFF7B7FD02E01E48FFF7F9
:100FD000B3FD0C4B00221A700EE00A4B1B781E2B3F
:100FE0000AD8084B1B785A1CD1B2064A1170194610
:100FF000054A97F84F3053540A2000F0E5F942E7CC
:10100000943200084405002024050020A83200087E
:10101000B03200084605002045050020D432000803
:10102000EC320008FC320008143300081C330008BE
:1010300028330008303300083C33000844330008EC
:10104000643300087833000898330008FFF774FE13
:101050000B480C490C4A002302E0D458C450043316
:10106000C4188C42F9D3094A094C002301E01360EB
:101070000432A242FBD301F065FBFFF799FD7047F4
:1010800000000020580000203C36000858000020D6
:10109000E4130020FEE780B584B000AF78607B6881
:1010A0001B68DB68FB607B681B681B69BB60BB68F7
:1010B00003F00203002B20D0FB6803F00203002B97
:1010C0001BD07B681B686FF002021A617B680122EB
:1010D0001A777B681B689B6903F00303002B03D01E
:1010E000786800F0DAF805E0786800F0CDF8786804
:1010F00000F0DCF87B6800221A77BB6803F0040379
:10110000002B20D0FB6803F00403002B1BD07B686E
:101110001B686FF004021A617B6802221A777B68F1
:101120001B689B6903F44073002B03D0786800F0C0
:10113000B4F805E0786800F0A7F8786800F0B6F831
:101140007B6800221A77BB6803F00803002B20D0CD
:10115000FB6803F00803002B1BD07B681B686FF053
:1011600008021A617B6804221A777B681B68DB69B6
:1011700003F00303002B03D0786800F08EF805E03D
:10118000786800F081F8786800F090F87B680022B9
:101190001A77BB6803F01003002B20D0FB6803F024
:1011A0001003002B1BD07B681B686FF010021A61C4
:1011B0007B6808221A777B681B68DB6903F440733D
:1011C000002B03D0786800F068F805E0786800F03C
:1011D0005BF8786800F06AF87B6800221A77BB68D1
:1011E00003F00103002B0CD0FB6803F00103002B7C
:1011F00007D07B681B686FF001021A61786800F005
:101200003AF8BB6803F08003002B0CD0FB6803F0B6
:101210008003002B07D07B681B686FF080021A6187
:10122000786800F05EF8BB6803F04003002B0CD038
:10123000FB6803F04003002B07D07B681B686FF04E
:1012400040021A61786800F03AF8BB6803F02003A6
:10125000002B0CD0FB6803F02003002B07D07B6829
:101260001B686FF020021A61786800F031F800BF47
:101270001037BD4680BD80B483B000AF786000BF3A
:101280000C37BD4680BC704780B483B000AF786037
:1012900000BF0C37BD4680BC704780B483B000AF40
:1012A000786000BF0C37BD4680BC704780B483B007
:1012B00000AF786000BF0C37BD4680BC704780B47B
:1012C00083B000AF786000BF0C37BD4680BC70476C
:1012D00080B483B000AF786000BF0C37BD4680BCDF
:1012E000704780B483B000AF786000BF0C37BD4654
:1012F00080BC704780B485B000AF0346FB800023FC
:10130000FB60B7F90630842B05D0B7F90620FB68DF
:1013100013440333FB60FB6818461437BD4680BC9A
:10132000704780B500AF00F0DFFA0023184680BD9B
:10133000F0B589B004AF786039607B685B69002BD9
:1013400020D07B689B69002B1CD07B685C687B6825
:101350001D687B681E697B68B3F908301846FFF783
:10136000C9FF01467B685B697A68926902920193C2
:1013700000913B6832462946204600F0E8F80346D3
:10138000FB601CE07B685C687B681D687B681B6990
:101390009EB27B68B3F908301846FFF7ABFF0246F0
:1013A00007F10C03019300923B6832462946204620
:1013B00000F02DF90346012B01D0002300E0FB686B
:1013C00018461437BD46F0BD80B584B000AF7860D4
:1013D0007B68FB60FB68002B01D0FB6800E0012309
:1013E000184600F04BFA002318461037BD4680BD62
:1013F00080B483B000AF78607B6803F108027B683B
:101400005A607B684FF0FF329A607B6803F10802F4
:101410007B68DA607B6803F108027B681A617B688D
:1014200000221A6000BF0C37BD4680BC704780B4F4
:1014300083B000AF78607B6800221A6100BF0C3770
:10144000BD4680BC704780B485B000AF786039601D
:101450007B685B68FB603B68FA685A60FB689A6867
:101460003B689A60FB689B683A685A60FB683A6818
:101470009A603B687A681A617B681B685A1C7B68B3
:101480001A6000BF1437BD4680BC704780B485B079
:1014900000AF786039603B681B68BB60BB68B3F124
:1014A000FF3F03D17B681B69FB600CE07B6808335E
:1014B000FB6002E0FB685B68FB60FB685B681B68C5
:1014C000BA689A42F6D2FB685A683B685A603B6831
:1014D0005B683A689A603B68FA689A60FB683A68A9
:1014E0005A603B687A681A617B681B685A1C7B6883
:1014F0001A6000BF1437BD4680BC704780B485B009
:1015000000AF78607B681B69FB607B685B687A680A
:1015100092689A607B689B687A6852685A60FB6838
:101520005B687A689A4203D17B689A68FB685A6064
:101530007B6800221A61FB681B685A1EFB681A60F0
:10154000FB681B6818461437BD4680BC704780B5E1
:101550008EB004AFF860B9607A603B607B6B002BA3
:101560000BD14FF0500383F31188BFF36F8FBFF39C
:101570004F8F3B6200BF00BFFDE7BB6B002B0BD161
:101580004FF0500383F31188BFF36F8FBFF34F8F7A
:10159000FB6100BF00BFFDE754233B613B69542B57
:1015A0000BD04FF0500383F31188BFF36F8FBFF35D
:1015B0004F8FBB6100BF00BFFDE73B69BB6B002BDA
:1015C0001ED07B6B002B1BD0BB6B7B627B6A7A6B64
:1015D0001A637B6A022283F85120002303937B6AFB
:1015E000029307F1140301933B6B00933B687A6805
:1015F000B968F86800F050F8786A00F0D5F801E0B2
:1016000000237B617B6918462837BD4680BD80B5C5
:101610008CB004AFF860B9603B601346FB80FB8878
:101620009B00184600F074FE78617B69002B0ED099
:10163000542000F06DFEF861FB69002B03D0FB69BC
:101640007A691A6305E0786900F030FF01E0002351
:10165000FB61FB69002B17D0FB69002283F8512046
:10166000FA8800230393FB690293FB6A0193BB6A28
:1016700000933B68B968F86800F00EF8F86900F06C
:1016800093F80123BB6102E04FF0FF33BB61BB69FC
:1016900018462037BD4680BD80B588B000AFF860E1
:1016A000B9607A603B603B6B1A6B7B6803F18043E7
:1016B000013B9B001344BB61BB6923F00703BB6183
:1016C000BB6903F00703002B0BD04FF0500383F3EB
:1016D0001188BFF36F8FBFF34F8F7B6100BF00BFD7
:1016E000FDE7BB68002B1FD00023FB6112E0BA6846
:1016F000FB69134419783A6BFB69134434330A4687
:101700001A70BA68FB6913441B78002B06D0FB697A
:101710000133FB61FB690F2BE9D900E000BF3B6B94
:10172000002283F8432003E03B6B002283F834203F
:10173000BB6A062B01D90623BB623B6BBA6ADA622D
:101740003B6BBA6A5A643B6B00229A643B6B04336E
:101750001846FFF76CFE3B6B18331846FFF767FE21
:101760003B6B3A6B1A61BB6AC3F107023B6B9A6130
:101770003B6B3A6B5A623B6B0022DA643B6B002294
:1017800083F850203A68F968B86900F00DFC024609
:101790003B6B1A60FB6A002B02D0FB6A3A6B1A6043
:1017A00000BF2037BD4680BD80B582B000AF7860F5
:1017B00000F0ECFC2A4B1B680133294A1360294BCB
:1017C0001B68002B09D1274A7B681360244B1B68D8
:1017D000012B10D100F0C4FA0DE0234B1B68002B45
:1017E00009D1204B1B68DA6A7B68DB6A9A4202D80F
:1017F0001C4A7B6813601D4B1B6801331B4A136036
:101800007B68DB6A01229A40194B1B681343184A14
:1018100013607B68DA6A13469B0013449B00154AE9
:101820001A447B68043319461046FFF70CFE00F09B
:10183000DDFC0D4B1B68002B0ED00A4B1B68DA6ACF
:101840007B68DB6A9A4207D20B4B4FF080521A60DA
:10185000BFF34F8FBFF36F8F00BF0837BD4680BD0A
:101860004806002048050020540600206406002099
:10187000500600204C05002004ED00E080B584B047
:1018800000AF78600023FB607B68002B18D0144BFE
:101890001B68002B0BD04FF0500383F31188BFF36C
:1018A0006F8FBFF34F8FBB6000BF00BFFDE700F03D
:1018B0007DF80021786800F011FB00F085F8F860F1
:1018C000FB68002B07D1074B4FF080521A60BFF323
:1018D0004F8FBFF36F8F00BF1037BD4680BD00BF75
:1018E0007006002004ED00E080B58AB004AF00234C
:1018F000BB6000237B603A46391D07F10803184698
:10190000FFF73EF939687B68BA68029201930023B9
:10191000009300230A461F491F48FFF718FE03469D
:101920001E4A13601D4B1B68002B02D001237B61F4
:1019300001E000237B617B69012B16D14FF050033E
:1019400083F31188BFF36F8FBFF34F8F3B6100BFED
:10195000134B4FF0FF321A60124B01221A60124BE8
:1019600000221A6000F0A0FB0FE07B69B3F1FF3F9B
:101970000BD14FF0500383F31188BFF36F8FBFF388
:101980004F8FFB6000BF00BFFDE700BF1837BD46AB
:1019900080BD00BFAC330008311D00086C0600207C
:1019A00068060020540600204C06002080B400AFDA
:1019B000044B1B680133034A136000BFBD4680BC63
:1019C000704700BF7006002080B584B000AF0023D0
:1019D000FB600023BB60424B1B68002B0BD14FF018
:1019E000500383F31188BFF36F8FBFF34F8F3B60BA
:1019F00000BF00BFFDE700F0C9FB394B1B68013B8E
:101A0000374A1360364B1B68002B61D1354B1B687E
:101A1000002B5DD02EE0344BDB68DB68FB60FB689D
:101A200018331846FFF76AFDFB6804331846FFF7C2
:101A300065FDFB68DB6A01229A402C4B1B6813434F
:101A40002A4A1360FB68DA6A13469B0013449B0022
:101A5000274A1A44FB68043319461046FFF7F3FC83
:101A6000FB68DA6A234B1B68DB6A9A4202D3224B7B
:101A700001221A601C4B1B68002BCCD1FB68002B89
:101A800001D000F00BFA1D4B1B687B607B68002BBC
:101A900010D000F037F80346002B02D0164B01227D
:101AA0001A607B68013B7B607B68002BF1D1134B94
:101AB00000221A60104B1B68002B09D00123BB6069
:101AC0000F4B4FF080521A60BFF34F8FBFF36F8FF1
:101AD00000F08CFBBB6818461037BD4680BD00BFC8
:101AE000700600204806002008060020500600204E
:101AF0004C050020480500205C0600205806002008
:101B000004ED00E080B586B000AF00237B614F4B51
:101B10001B68002B40F08F804D4B1B6801333B61ED
:101B20004B4A3B6913603B69002B21D1494B1B6831
:101B30001B68002B0BD04FF0500383F31188BFF3C9
:101B40006F8FBFF34F8F3B6000BF00BFFDE7414B7E
:101B50001B68FB60404B1B683E4A13603E4AFB68B3
:101B600013603E4B1B6801333C4A136000F096F94A
:101B70003B4B1B683A699A4248D3364B1B681B683B
:101B8000002B04D1364B4FF0FF321A603EE0314B50
:101B90001B68DB68DB68BB60BB685B687B603A69BD
:101BA0007B689A4203D22E4A7B6813602EE0BB68A2
:101BB00004331846FFF7A2FCBB689B6A002B04D0D5
:101BC000BB6818331846FFF799FCBB68DB6A012233
:101BD0009A40244B1B681343224A1360BB68DA6A9D
:101BE00013469B0013449B001F4A1A44BB680433EE
:101BF00019461046FFF727FCBB68DA6A1B4B1B68C7
:101C0000DB6A9A42B9D301237B61B6E7174B1B68A5
:101C1000DA6A154913469B0013449B000B441B686A
:101C2000012B01D901237B61114B1B68002B07D0CD
:101C300001237B6104E00F4B1B6801330D4A1360E5
:101C40007B6918461837BD4680BD00BF700600206E
:101C50004C0600200006002004060020600600203C
:101C600068060020500600204C0500204805002092
:101C70005C0600205806002080B487B000AF274BD8
:101C80001B68002B03D0264B01221A6040E0244B36
:101C900000221A60234B1B68FB60FB68B3FA83F3D6
:101CA000FB72FB7AC3F11F037B611F497A691346FC
:101CB0009B0013449B000B441B68002B0BD14FF07F
:101CC000500383F31188BFF36F8FBFF34F8F7B6097
:101CD00000BF00BFFDE77A6913469B0013449B00D9
:101CE000114A13443B613B695B685A683B695A601F
:101CF0003B695A683B6908339A4204D13B695B6887
:101D00005A683B695A603B695B68DB68074A136045
:101D100000BF1C37BD4680BC704700BF7006002066
:101D20005C060020500600204C05002048050020DD
:101D300080B582B000AF786000F052F8064B1B68A7
:101D4000012BF9D9054B4FF080521A60BFF34F8F2A
:101D5000BFF36F8FF0E700BF4C05002004ED00E0FB
:101D600080B582B000AF00237B600CE07A68134638
:101D70009B0013449B00124A13441846FFF738FB9C
:101D80007B6801337B607B68062BEFD90D48FFF73A
:101D90002FFB0D48FFF72CFB0C48FFF729FB0C48E5
:101DA000FFF726FB0B48FFF723FB0B4B054A1A6096
:101DB0000A4B054A1A6000BF0837BD4680BD00BF08
:101DC0004C050020D8050020EC0500200806002066
:101DD0001C06002034060020000600200406002017
:101DE00080B582B000AF19E000F0D0F9104BDB688D
:101DF000DB687B607B6804331846FFF77FFB0D4B85
:101E00001B68013B0B4A13600B4B1B68013B0A4AE2
:101E1000136000F0EBF9786800F010F8064B1B68CF
:101E2000002BE1D100BF00BF0837BD4680BD00BF19
:101E30001C060020480600203006002080B584B033
:101E400000AF78607B6893F85130002B08D17B6835
:101E50001B6B184600F02AFB786800F027FB19E09E
:101E60007B6893F85130012B03D1786800F01EFB9A
:101E700010E07B6893F85130022B0BD04FF05003E9
:101E800083F31188BFF36F8FBFF34F8FFB6000BFE9
:101E900000BFFDE700BF1037BD4680BD80B483B0F2
:101EA00000AF0C4B1B681B68002B04D10A4B4FF092
:101EB000FF321A6008E0074B1B68DB68DB687B6059
:101EC0007B685B68044A136000BF0C37BD4680BC6A
:101ED000704700BF000600206806002080B584B06F
:101EE00000AF78603960294B1B68FB60284B1B688A
:101EF00004331846FFF702FB0346002B0BD1244B9B
:101F00001B68DB6A012202FA03F3DA43214B1B68E8
:101F10001340204A13607B68B3F1FF3F0AD13B684E
:101F2000002B07D01A4B1B68043319461A48FFF7D9
:101F30008AFA26E0FA687B681344BB60144B1B687E
:101F4000BA685A60BA68FB689A4209D2134B1A6899
:101F50000F4B1B68043319461046FFF797FA10E041
:101F60000F4B1A680A4B1B68043319461046FFF7DB
:101F70008DFA0C4B1B68BA689A4202D2094ABB68B8
:101F8000136000BF1037BD4680BD00BF4C06002067
:101F900048050020500600203406002004060020DA
:101FA000000600206806002080B485B000AFF8600D
:101FB000B9607A60FB68043BFB60FB684FF080729D
:101FC0001A60FB68043BFB60BB6823F00102FB68FE
:101FD0001A60FB68043BFB60084AFB681A60FB68F8
:101FE000143BFB607A68FB681A60FB68203BFB606F
:101FF000FB6818461437BD4680BC704701200008B6
:1020000080B485B000AF00237B60124B1B68B3F136
:10201000FF3F0BD04FF0500383F31188BFF36F8F56
:10202000BFF34F8FFB6000BF00BFFDE74FF05003D1
:1020300083F31188BFF36F8FBFF34F8FBB6000BF77
:1020400000BF7B68002BFCD000BF00BF1437BD462B
:1020500080BC704704000020000000000000000069
:10206000074B19680868B0E8F00F80F30988BFF3E0
:102070006F8F4FF0000080F311884EF00D0E704707
:102080004805002000BF00BF06480068006880F3D4
:10209000088862B661B6BFF34F8FBFF36F8F00DF62
:1020A00000BF00BF08ED00E080B584B000AF324B48
:1020B000FB60FB681B78DBB27B60FB68FF221A7059
:1020C000FB681B78DBB2FB70FB78DBB203F05003DC
:1020D000DAB22A4B1A702A4B07221A6009E0284B01
:1020E0001B68013B264A1360FB78DBB25B00DBB266
:1020F000FB70FB78DBB203F08003802BEFD0204B2A
:102100001B68C3F10703042B0BD04FF0500383F37C
:102110001188BFF36F8FBFF34F8FBB6000BF00BF4D
:10212000FDE7174B1B681B02154A1360144B1B6815
:1021300003F4E063124A13607B68DAB2FB681A703A
:10214000104B1B680F4A43F4700313600D4B1B6860
:102150000C4A43F07043136000F0B8F80A4B0022B9
:102160001A60FFF791FFFFF787FDFFF749FF002394
:1021700018461037BD4680BD00E400E0740600201C
:102180007806002020ED00E00400002080B483B039
:1021900000AF4FF0500383F31188BFF36F8FBFF38D
:1021A0004F8F7B6000BF0F4B1B6801330D4A1360DC
:1021B0000C4B1B68012B10D10B4B1B68DBB2002BA7
:1021C0000BD04FF0500383F31188BFF36F8FBFF331
:1021D0004F8F3B6000BF00BFFDE700BF0C37BD461F
:1021E00080BC70470400002004ED00E080B483B0A0
:1021F00000AF124B1B68002B0BD14FF0500383F341
:102200001188BFF36F8FBFF34F8F7B6000BF00BF9C
:10221000FDE70A4B1B68013B084A1360074B1B682C
:10222000002B05D100233B603B6883F3118800BF7E
:1022300000BF0C37BD4680BC704700BF04000020C3
:10224000EFF30980BFF36F8F0D4B1A6820E9F00F91
:1022500010602DE908404FF0500080F31188FFF71F
:102260000BFD4FF0000080F31188BDE808401968AD
:102270000868B0E8F00F80F30988BFF36F8F7047EC
:102280004805002000BF00BF80B582B000AF4FF00E
:10229000500383F31188BFF36F8FBFF34F8F7B60C1
:1022A00000BFFFF72FFC0346002B03D0064B4FF077
:1022B00080521A6000233B603B6883F3118800BFA3
:1022C00000BF0837BD4680BD04ED00E080B400AF1C
:1022D0000A4B00221A600A4B00221A60094B1B6845
:1022E000094AA2FB03239B09084A013B1360034BE5
:1022F00007221A6000BFBD4680BC704710E000E0B6
:1023000018E000E000000020D34D621014E000E06F
:1023100080B58AB000AF78600023FB61FFF746FB11
:102320005C4B1B68002B01D100F024F95A4B1A6852
:102330007B681340002B40F095807B68002B1ED0FB
:1023400008227B6813447B607B6803F00703002B43
:1023500015D07B6823F0070308337B607B6803F0AC
:102360000703002B0BD04FF0500383F31188BFF30A
:102370006F8FBFF34F8F7B6100BF00BFFDE77B68AE
:10238000002B6FD0454B1B687A689A426AD8444B41
:102390003B62434B1B687B6204E07B6A3B627B6A67
:1023A0001B687B627B6A5B687A689A4203D97B6AA6
:1023B0001B68002BF1D1374B1B687A6A9A4251D0C7
:1023C0003B6A1B6808221344FB617B6A1A683B6AFC
:1023D0001A607B6A5A687B68D21A08235B009A42AB
:1023E00020D97A6A7B681344BB61BB6903F0070399
:1023F000002B0BD04FF0500383F31188BFF36F8F86
:10240000BFF34F8F3B6100BF00BFFDE77B6A5A6897
:102410007B68D21ABB695A607B6A7A685A60B8696D
:1024200000F00AF91D4B1A687B6A5B68D31A1B4AD5
:1024300013601A4B1A681B4B1B689A4203D2174B46
:102440001B68184A13607B6A5A68134B1B681A434F
:102450007B6A5A607B6A00221A60134B1B68013347
:10246000114A1360FFF7B0FAFB6903F00703002B72
:102470000BD04FF0500383F31188BFF36F8FBFF37E
:102480004F8FFB6000BF00BFFDE7FB691846283790
:10249000BD4680BD841200209812002088120020C2
:1024A0007C1200208C1200209012002080B586B093
:1024B00000AF78607B687B617B68002B4FD008237E
:1024C0005B427A6913447B617B693B613B695A6873
:1024D000254B1B681340002B0BD14FF0500383F3A7
:1024E0001188BFF36F8FBFF34F8FFB6000BF00BF3A
:1024F000FDE73B691B68002B0BD04FF0500383F3C3
:102500001188BFF36F8FBFF34F8FBB6000BF00BF59
:10251000FDE73B695A68144B1B681340002B1ED023
:102520003B691B68002B1AD13B695A680E4B1B682C
:10253000DB431A403B695A60FFF738FA3B695A6837
:102540000A4B1B681344094A1360386900F074F899
:10255000074B1B680133064A1360FFF735FA00BFCB
:102560001837BD4680BD00BF981200208812002099
:102570009412002080B485B000AF4FF44063BB607C
:10258000274BFB60FB6803F00703002B0CD0FB68B4
:102590000733FB60FB6823F00703FB60BA68FB6846
:1025A000D31A1F4A1344BB60FB687B601D4A7B68DB
:1025B00013601C4B00225A607B68BA681344FB60AE
:1025C0000822FB689B1AFB60FB6823F00703FB6093
:1025D000FB68154A1360144B1B6800225A60124BAB
:1025E0001B6800221A607B683B603B68FA68D21A5D
:1025F0003B685A600C4B1A683B681A603B685B6822
:102600000A4A13603B685B68094A1360094B4FF044
:1026100000421A6000BF1437BD4680BC704700BF3F
:102620007C0600207C120020841200208C120020E6
:10263000881200209812002080B485B000AF786026
:10264000274BFB6002E0FB681B68FB60FB681B68B4
:102650007A689A42F7D8FB68BB60FB685B68BA6827
:1026600013447A689A4208D1FB685A687B685B68B1
:102670001A44FB685A60FB687B607B68BB607B68C0
:102680005B68BA681A44FB681B689A4218D1FB68F9
:102690001A68144B1B689A420DD07B685A68FB6815
:1026A0001B685B681A447B685A60FB681B681A6881
:1026B0007B681A6008E00B4B1A687B681A6003E0BD
:1026C000FB681A687B681A60FA687B689A4202D0D5
:1026D000FB687A681A6000BF1437BD4680BC70473B
:1026E0007C120020841200200EB46FF0004100B56F
:1026F0009CB01DAB029006900791049108480949CF
:1027000053F8042B0591006802A9019300F0A0F989
:102710000022029B1A701CB05DF804EB03B07047F6
:10272000080000200802FFFF03460244934200D144
:10273000704703F8011BF9E7014B1868704700BFA9
:102740000800002070B500260C4D0D4C641BA41031
:10275000A64209D100F078FC00260A4D0A4C641B01
:10276000A410A64205D170BD55F8043B9847013628
:10277000EEE755F8043B98470136F2E73436000897
:102780003436000834360008383600087047704781
:102790000A44914200F1FF3300D1704710B511F89F
:1027A000014B914203F8014FF9D110BD38B50546F0
:1027B000002940D051F8043C0C1F002BB8BFE4188E
:1027C00000F0DEF81C4A136833B9636014602846D1
:1027D000BDE8384000F0DAB8A34208D920682118D3
:1027E0008B4201BF19685B6809182160EDE71A4642
:1027F0005B680BB1A342FAD911685018A0420BD103
:1028000020680144501883421160E0D118685B6869
:10281000084410605360DAE702D90C232B60D6E736
:10282000206821188B4201BF19685B680918216074
:1028300063605460CBE738BDE013002070B50F4EE5
:102840000C463168054611B900F0AAFB30602146FC
:10285000284600F0A5FB431C03D14FF0FF3420466F
:1028600070BDC41C24F00304A042F8D0211A2846ED
:1028700000F096FB0130F2D1EFE700BFDC1300203F
:102880002DE9F843CD1C25F0030508350C2D38BF84
:102890000C25002D064601DBA94204D90C23336028
:1028A0000020BDE8F883DFF8D48000F069F8D8F89C
:1028B00000301C4644BB29463046FFF7BFFF431C8F
:1028C000044658D1D8F800402746002F43D1002CA9
:1028D0004BD023683946304604EB030900F060FB17
:1028E000814542D1216830466D1A2946FFF7A6FF7F
:1028F00001303AD023682B442360D8F800305A685E
:1029000062BBC8F800700FE02268521B20D40B2A6B
:1029100017D96119A342256018BF5960636808BFC1
:10292000C8F8001062514B60304600F02FF804F1F7
:102930000B00231D20F00700C21A1CBF1B1AA35056
:10294000AFE76268A3420CBFC8F800205A60EBE70B
:1029500023466468AEE73C467F68B6E71A465B6884
:10296000A342FBD100235360DEE70C2330463360E3
:1029700000F00CF894E70560D6E700BFE0130020F4
:102980000148FFF703BF00BFD81300200148FFF73D
:10299000FEBE00BFD81300202DE9F0471F468E6809
:1029A0008246BE420C4690460B682DD8B1F90C20E9
:1029B00012F4906F26D06569096905EB4505A3EB14
:1029C000010905EBD5757B1C4B446D109D4238BF4A
:1029D0001D46530527D52946FFF752FF064660B32B
:1029E0004A462169FFF7D4FEA38923F4906343F09C
:1029F0008003A38126614E4426603E466561A5EBB7
:102A00000905A560BE4200D93E46324641462068CF
:102A100000F0ACFA0020A3689B1BA360236833443A
:102A20002360BDE8F0872A4600F0D8FA0646002861
:102A3000E0D150462169FFF7B9FE0C23CAF80030F7
:102A4000A3894FF0FF3043F04003A381E9E7000082
:102A50002DE9F04F98468B8907461B060D46144614
:102A60009DB010D50B6973B94021FFF709FF2860AD
:102A7000286130B90C233B604FF0FF301DB0BDE83A
:102A8000F08F40236B610023099320238DF82930B8
:102A900030234FF00109CDF80C80DFF898818DF8D4
:102AA0002A3023469A4613F8012B0AB1252AF9D178
:102AB000BAEB040B0BD05B46224629463846FFF79B
:102AC0006BFF013000F0A780099A5A4409929AF8E6
:102AD0000030002B00F09F8000234FF0FF32CDE943
:102AE00005230AF1010A049307938DF853301A93D2
:102AF0005446052214F8011B4E4800F061FA049A6E
:102B0000D8B9D00644BF20238DF85330110744BFF5
:102B10002B238DF853309AF800302A2B15D05446C9
:102B200000204FF00A0C079A214611F8013B303B78
:102B3000092B4BD9B0B1079214E0A0EB080309FAB6
:102B400003F31343A2460493D2E7039B191D1B68AA
:102B50000391002BBBBF5B4242F002020793079335
:102B6000B8BF049223782E2B0AD163782A2B32D156
:102B7000039B02341A1D1B68039243EAE373059317
:102B8000DFF8B4A003225046217800F019FA38B1DA
:102B90004022049BA0EB0A008240134301340493BB
:102BA00014F8011B062225488DF8281000F008FAB9
:102BB000002836D0224B1BBB039B073323F00703AF
:102BC00008330393099B334409936AE70C460120B9
:102BD0000CFB0232A8E700234FF00A0C194601341F
:102BE0000593204610F8012B303A092A03D9002B0F
:102BF000C6D00591C4E7044601230CFB0121F0E790
:102C000003AB00932A4638460E4B04A9AFF300806D
:102C1000421C0646D6D1AB895B063FF52DAF09981D
:102C20002CE703AB00932A463846064B04A900F074
:102C30007DF8EDE7F9350008FF3500080336000898
:102C400000000000992900082DE9F0471646984633
:102C50008A680B6907469342B8BF1346336091F800
:102C600043200C46DDF820900AB10133336023681D
:102C7000990642BF336802333360256815F00605B4
:102C800006D104F1190AE36832689B1AAB422BDCC7
:102C900094F843302268003B18BF0123920630D4D9
:102CA0004146384604F14302C847013023D0236827
:102CB000226903F00603042B14BF002533684FF08C
:102CC000000608BFE56804F11A0408BFED1A54F8BD
:102CD000123C08BF25EAE5759342C4BF9B1AED1864
:102CE000B5421AD1002008E0012352464146384639
:102CF000C847013003D14FF0FF30BDE8F087013500
:102D0000C1E73020E11881F843005A1C94F84510BF
:102D10002244023382F84310C2E70123224641468F
:102D20003846C8470130E6D00136D9E72DE9FF47DC
:102D30000F7E9146782F80460C469A460C9E01F1F4
:102D4000430207D8622F0AD8002F00F0D380582FF3
:102D500000F0BA8004F1420684F842703AE0A7F12C
:102D60006303152BF6D801A151F823F0C52D0008F7
:102D7000D92D0008552D0008552D0008552D0008A7
:102D8000552D0008D92D0008552D0008552D000897
:102D9000552D0008552D0008DB2E0008032E0008D5
:102DA000952E0008552D0008552D0008FD2E000811
:102DB000552D0008032E0008552D0008552D00083C
:102DC0009D2E000833681A1D1B68326004F142060C
:102DD00084F8423001239EE033682068191D316079
:102DE000060601D51D6803E04506FBD5B3F9005082
:102DF000002D03DA2D236D4284F843300A2359480D
:102E000011E021683368080653F8045B02D44906D0
:102E100048BFADB26F2F336014BF0A230823514857
:102E2000002184F843106668002EA8BF2168A660C0
:102E3000A4BF21F0040121600DB9002E4BD016462D
:102E4000B5FBF3F103FB1157C75D06F8017D2F4673
:102E5000BB420D46F4D9082B0BD12368DF0708D5F8
:102E6000236961689942DEBF302306F8013C06F110
:102E7000FF36921B22614B4621464046CDF800A00A
:102E800003AAFFF7E1FE01304AD14FF0FF3004B052
:102E9000BDE8F087236843F0200323607827324899
:102EA00084F84570236831681F0651F8045B02D42A
:102EB0005F0648BFADB23160D90744BF43F020037D
:102EC00023601DB11023ABE72648E9E7236823F010
:102ED00020032360F6E71646BDE733682568181D12
:102EE000616930602E061B6801D5196002E0680632
:102EF000FBD51980002316462361BCE73368002107
:102F00001A1D32601E686268304600F059F808B138
:102F1000801B606063682361002384F84330AAE764
:102F20003246494640462369D0470130ADD0236838
:102F30009B0713D4E068039B9842B8BF1846A6E7E6
:102F40000123324649464046D04701309DD00135E5
:102F5000E36803995B1AAB42F2DCEBE7002504F16E
:102F60001906F5E70A3600081B360008884210B536
:102F700001EB020402D98442234607D8431EA14232
:102F800008D011F8012B03F8012FF8E7014602449D
:102F90008A4200D110BD13F8014D02F8014DF7E748
:102FA00038B50023054D044608462B60FDF78EFE1C
:102FB000431C02D12B6803B1236038BDD413002019
:102FC000034610B5C9B202449342184601D100200D
:102FD00003E0047801338C42F6D110BD2DE9F041B5
:102FE000804615460C4621B91146BDE8F041FFF771
:102FF00047BC2AB9FFF7DAFB00242046BDE8F08180
:1030000000F01AF88542064602D8B5EB500FF4D806
:1030100029464046FFF734FC07460028ECD0B5426D
:103020002A46214628BF3246FFF7B2FB21464046DA
:10303000FFF7BCFB3C46E0E751F8043C181F002BAF
:10304000BCBF0B58C0187047F8B500BFF8BC08BC2F
:103050009E467047F8B500BFF8BC08BC9E46704756
:1030600054696D656F75743A206E6F20696E69746E
:1030700069616C204C4F572066726F6D2044485434
:1030800032320D0A0000000054696D656F75743AA4
:10309000206E6F2048494748206166746572206938
:1030A0006E697469616C204C4F570D0A0000000076
:1030B00054696D656F75743A206C696E652064693A
:1030C000646E277420676F204C4F57206265666FCF
:1030D000726520646174610D0A00000054696D65B9
:1030E0006F75743A207761697420666F7220626927
:1030F000742073746172740D0A00000054696D6568
:103100006F75743A2062697420646964206E6F740C
:1031100020656E640D0A00005261773A2025642014
:1031200025642025642025642025640D0A00000004
:10313000436865636B73756D206661696C65640DCA
:103140000A000000444854323220726561642073E2
:103150007563636573730D0A000000005541525496
:103160005F5461736B000000496E697469616C693A
:103170007A65640D0A0000005C310008750E0008D5
:10318000000000000100000000020000000000003C
:103190000000000044485432325F5461736B0000F9
:1031A00094310008450D00080000000001000000F7
:1031B00000020000000000000000000048435352DD
:1031C00030345F5461736B00BC310008250E000879
:1031D00000000000010000000002000000000000EC
:1031E00000000000446973706C61795F5461736B17
:1031F00000000000E4310008B10D000800000000EC
:1032000001000000000200000000000000000000BB
:1032100054656D703A20256443202048756D6964BB
:103220006974793A20256425250D0A0044485432F2
:10323000322072656164206661696C65640D0A0004
:1032400044697374616E63653A00000054696D658A
:103250006F75742F4E6F206F626A65637400000093
:10326000256C7520636D000048432D535230342087
:10327000726561642074696D656F75740D0A000074
:1032800044697374616E63653A20256C7520636DC3
:103290000D0A000055415254205461736B20537441
:1032A00061727465640D0A00545354415254000015
:1032B00054656D7065726174757265204D6F6E69CD
:1032C000746F72696E6720537461727465640D0A5D
:1032D0000000000054656D703A20256443202048AA
:1032E000756D3A20256425250D0A000044485432A6
:1032F00032204572726F720D0A0000004D6F6E69C8
:10330000746F72696E672053746F707065640D0A14
:10331000000000004C4544204F4E00004C45442026
:103320004F4E0D0A000000004C4544204F46460019
:103330004C4544204F46460D0A0000004449535472
:103340000000000044697374616E6365204D6F6E08
:1033500069746F72696E6720537461727465640D6D
:103360000A00000044697374616E63653A20256C3D
:103370007520636D0D0A000044697374616E6365A6
:10338000204D6F6E69746F72696E672053746F7031
:103390007065640D0A000000556E6B6E6F776E20CD
:1033A000436F6D6D616E640D0A00000049444C4529
:1033B00000000000000608200000000000000000DF
:1033C000002F000000000700070000147F147F1486
:1033D00000242A7F2A12002313086462003649550C
:1033E000225000000503000000001C2241000000E4
:1033F00041221C000014083E08140008083E08087A
:10340000000000A0600000080808080800006060D4
:103410000000002010080402003E5149453E000013
:10342000427F4000004261514946002141454B31F5
:10343000001814127F10002745454539003C4A49C1
:103440004930000171090503003649494936000633
:103450004949291E0000363600000000563600009B
:103460000008142241000014141414140000412216
:10347000140800020151090600324959513E007CEE
:103480001211127C007F49494936003E41414122D8
:10349000007F4141221C007F49494941007F0909C1
:1034A0000901003E4149497A007F0808087F000071
:1034B000417F4100002040413F01007F081422412C
:1034C000007F40404040007F020C027F007F0408E4
:1034D000107F003E4141413E007F09090906003E40
:1034E0004151215E007F0919294600464949493169
:1034F0000001017F0101003F4040403F001F20408C
:10350000201F003F4038403F006314081463000749
:103510000870080700615149454300007F414100A0
:1035200000552A552A55000041417F000004020140
:10353000020400404040404000000102040000201E
:1035400054545478007F484444380038444444205C
:1035500000384444487F00385454541800087E0909
:1035600001020018A4A4A47C007F080404780000D1
:10357000447D4000004080847D00007F102844008E
:103580000000417F4000007C04180478007C08049F
:10359000047800384444443800FC242424180018DB
:1035A000242418FC007C08040408004854545420C7
:1035B00000043F444020003C4040207C001C204050
:1035C000201C003C4030403C004428102844001C93
:1035D000A0A0A07C004464544C4400000877000084
:1035E0000000007F000000007708000000100810B5
:1035F000080014141414141400232D302B20006818
:103600006C4C0065666745464700303132333435CF
:10361000363738394142434445460030313233343D
:0C36200035363738396162636465660036
:08362C0024CBFF7F0100000028
:043634003501000854
:043638001101000874
:10363C0000127A00AAAAAAAA0C000020000000001E
:10364C009C120020041300206C13002000000000CA
:10365C00000000000000000000000000000000005E
:10366C00000000000000000000000000000000004E
:10367C00000000000000000000000000000000003E
:08368C00000000000000000036
:040000050800104D92
:00000001FF
